{
  "transactions": [
    {
      "hash": null,
      "transactionType": "CALL",
      "contractName": null,
      "contractAddress": "0x46272ee80aba9db0ee4813d2b7ce910f4c7c06cb",
      "function": "applyChainUpdates((uint64,bool,bytes,bytes,(bool,uint128,uint128),(bool,uint128,uint128))[])",
      "arguments": [
        "[(16015286601757825753, true, 0x000000000000000000000000132817a7c40df835b3c0c43f0256d463851b7545, 0x00000000000000000000000048fe9d6300234b600a189329480c0f9dd6f9ecc8, (false, 0, 0), (false, 0, 0))]"
      ],
      "transaction": {
        "from": "0x61408ec3bc83622af4e14c07a42af1ac553a8dac",
        "to": "0x46272ee80aba9db0ee4813d2b7ce910f4c7c06cb",
        "gas": "0x8114",
        "value": "0x0",
        "input": "0xdb6327dc000000000000000000000000000000000000000000000000000000000000002000000000000000000000000000000000000000000000000000000000000000010000000000000000000000000000000000000000000000000000000000000020000000000000000000000000000000000000000000000000de41ba4fc9d91ad90000000000000000000000000000000000000000000000000000000000000001000000000000000000000000000000000000000000000000000000000000014000000000000000000000000000000000000000000000000000000000000001800000000000000000000000000000000000000000000000000000000000000000000000000000000000000000000000000000000000000000000000000000000000000000000000000000000000000000000000000000000000000000000000000000000000000000000000000000000000000000000000000000000000000000000000000000000000000000000000000000000000000000000000000000000000000000000000000000000000000000000000000000000000000000000000000000000000000000000000000000000000000000000000000000000000000020000000000000000000000000132817a7c40df835b3c0c43f0256d463851b7545000000000000000000000000000000000000000000000000000000000000002000000000000000000000000048fe9d6300234b600a189329480c0f9dd6f9ecc8",
        "nonce": "0xd",
        "chainId": "0x12c"
      },
      "additionalContracts": [],
      "isFixedGasLimit": false
    }
  ],
  "receipts": [],
  "libraries": [],
  "pending": [],
  "returns": {},
  "timestamp": 1749229540,
  "chain": 300,
  "commit": "bbb6947"
}