{
  "transactions": [
    {
      "hash": "0x09c3fac32dda5dfc171b5de4bb35e27e1a97e3e8cb459a5286f79f59d5ef7682",
      "transactionType": "CALL",
      "contractName": null,
      "contractAddress": "0x132817a7c40df835b3c0c43f0256d463851b7545",
      "function": "applyChainUpdates((uint64,bool,bytes,bytes,(bool,uint128,uint128),(bool,uint128,uint128))[])",
      "arguments": [
        "[(6898391096552792247, true, 0x00000000000000000000000046272ee80aba9db0ee4813d2b7ce910f4c7c06cb, 0x000000000000000000000000367ae0d670de5f56e90142c72eb5de69f7ddd937, (false, 0, 0), (false, 0, 0))]"
      ],
      "transaction": {
        "from": "0x61408ec3bc83622af4e14c07a42af1ac553a8dac",
        "to": "0x132817a7c40df835b3c0c43f0256d463851b7545",
        "gas": "0x525dc",
        "value": "0x0",
        "input": "0xdb6327dc0000000000000000000000000000000000000000000000000000000000000020000000000000000000000000000000000000000000000000000000000000000100000000000000000000000000000000000000000000000000000000000000200000000000000000000000000000000000000000000000005fbc02272fbf20b7000000000000000000000000000000000000000000000000000000000000000100000000000000000000000000000000000000000000000000000000000001400000000000000000000000000000000000000000000000000000000000000180000000000000000000000000000000000000000000000000000000000000000000000000000000000000000000000000000000000000000000000000000000000000000000000000000000000000000000000000000000000000000000000000000000000000000000000000000000000000000000000000000000000000000000000000000000000000000000000000000000000000000000000000000000000000000000000000000000000000000000000000000000000000000000000000000000000000000000000000000000000000000000000000000000000000002000000000000000000000000046272ee80aba9db0ee4813d2b7ce910f4c7c06cb0000000000000000000000000000000000000000000000000000000000000020000000000000000000000000367ae0d670de5f56e90142c72eb5de69f7ddd937",
        "nonce": "0x3c",
        "chainId": "0xaa36a7"
      },
      "additionalContracts": [],
      "isFixedGasLimit": false
    }
  ],
  "receipts": [
    {
      "status": "0x1",
      "cumulativeGasUsed": "0x1a73bac",
      "logs": [
        {
          "address": "0x132817a7c40df835b3c0c43f0256d463851b7545",
          "topics": [
            "0x8d340f17e19058004c20453540862a9c62778504476f6756755cb33bcd6c38c2"
          ],
          "data": "0x0000000000000000000000000000000000000000000000005fbc02272fbf20b700000000000000000000000000000000000000000000000000000000000001000000000000000000000000000000000000000000000000000000000000000000000000000000000000000000000000000000000000000000000000000000000000000000000000000000000000000000000000000000000000000000000000000000000000000000000000000000000000000000000000000000000000000000000000000000000000000000000000000000000000000000000000000000000000000000000000000000000000000000000000000000000000000000000000000000000000000000000000000000000000000000000000000000000000000020000000000000000000000000367ae0d670de5f56e90142c72eb5de69f7ddd937",
          "blockHash": "0x9e54fbc9bf32cf81ff8865632794afae71be367f95ec12fcb157b19fffd85db9",
          "blockNumber": "0x818ed9",
          "blockTimestamp": "0x68431a70",
          "transactionHash": "0x09c3fac32dda5dfc171b5de4bb35e27e1a97e3e8cb459a5286f79f59d5ef7682",
          "transactionIndex": "0xbd",
          "logIndex": "0x211",
          "removed": false
        }
      ],
      "logsBloom": "0x00000000000000400000000000000000000000000000000000000000000200000000000000000000000000000000000000000000000000000004000000000000000008000000000000000000000000000000000000000000000000000000000000000000000000000000000000000000000000000000000000000000000000000000000000000000000000000000000000000000000000000000000000000000000000000000000000000000010000000000000000000000000000000000000000000000000000000000000000000000000000000000000000000000000000000000000000000000000000000000000000000000000000000100000000000000",
      "type": "0x2",
      "transactionHash": "0x09c3fac32dda5dfc171b5de4bb35e27e1a97e3e8cb459a5286f79f59d5ef7682",
      "transactionIndex": "0xbd",
      "blockHash": "0x9e54fbc9bf32cf81ff8865632794afae71be367f95ec12fcb157b19fffd85db9",
      "blockNumber": "0x818ed9",
      "gasUsed": "0x3ba1c",
      "effectiveGasPrice": "0x119055",
      "from": "0x61408ec3bc83622af4e14c07a42af1ac553a8dac",
      "to": "0x132817a7c40df835b3c0c43f0256d463851b7545",
      "contractAddress": null
    }
  ],
  "libraries": [],
  "pending": [],
  "returns": {},
  "timestamp": 1749228145,
  "chain": 11155111,
  "commit": "bbb6947"
}