{
  "transactions": [
    {
      "hash": "0x79624405f2bc983ddbaa5f22904dc64576106a2641d666f9bcbfe3a6424d5571",
      "transactionType": "CALL",
      "contractName": null,
      "contractAddress": "0x2405966c723213e94bcedfaa1c9877ad1d515b5d",
      "function": "applyChainUpdates((uint64,bool,bytes,bytes,(bool,uint128,uint128),(bool,uint128,uint128))[])",
      "arguments": [
        "[(6898391096552792247, true, 0x0000000000000000000000005deb30fdfd974cda83f1ddb6c0ae1e08c1ebdd68, 0x000000000000000000000000adde6642e7da5d43892783d8b36c6deefeca7a89, (false, 0, 0), (false, 0, 0))]"
      ],
      "transaction": {
        "from": "0x61408ec3bc83622af4e14c07a42af1ac553a8dac",
        "to": "0x2405966c723213e94bcedfaa1c9877ad1d515b5d",
        "gas": "0x525dc",
        "value": "0x0",
        "input": "0xdb6327dc0000000000000000000000000000000000000000000000000000000000000020000000000000000000000000000000000000000000000000000000000000000100000000000000000000000000000000000000000000000000000000000000200000000000000000000000000000000000000000000000005fbc02272fbf20b700000000000000000000000000000000000000000000000000000000000000010000000000000000000000000000000000000000000000000000000000000140000000000000000000000000000000000000000000000000000000000000018000000000000000000000000000000000000000000000000000000000000000000000000000000000000000000000000000000000000000000000000000000000000000000000000000000000000000000000000000000000000000000000000000000000000000000000000000000000000000000000000000000000000000000000000000000000000000000000000000000000000000000000000000000000000000000000000000000000000000000000000000000000000000000000000000000000000000000000000000000000000000000000000000000000000000200000000000000000000000005deb30fdfd974cda83f1ddb6c0ae1e08c1ebdd680000000000000000000000000000000000000000000000000000000000000020000000000000000000000000adde6642e7da5d43892783d8b36c6deefeca7a89",
        "nonce": "0x4f",
        "chainId": "0xaa36a7"
      },
      "additionalContracts": [],
      "isFixedGasLimit": false
    }
  ],
  "receipts": [
    {
      "status": "0x1",
      "cumulativeGasUsed": "0x17e22d7",
      "logs": [
        {
          "address": "0x2405966c723213e94bcedfaa1c9877ad1d515b5d",
          "topics": [
            "0x8d340f17e19058004c20453540862a9c62778504476f6756755cb33bcd6c38c2"
          ],
          "data": "0x0000000000000000000000000000000000000000000000005fbc02272fbf20b700000000000000000000000000000000000000000000000000000000000001000000000000000000000000000000000000000000000000000000000000000000000000000000000000000000000000000000000000000000000000000000000000000000000000000000000000000000000000000000000000000000000000000000000000000000000000000000000000000000000000000000000000000000000000000000000000000000000000000000000000000000000000000000000000000000000000000000000000000000000000000000000000000000000000000000000000000000000000000000000000000000000000000000000000000020000000000000000000000000adde6642e7da5d43892783d8b36c6deefeca7a89",
          "blockHash": "0x828661ad75e18a03d960da0a78d55677a3e3a146a905f446e74d64c7d3f7096f",
          "blockNumber": "0x818f9f",
          "blockTimestamp": "0x684323b8",
          "transactionHash": "0x79624405f2bc983ddbaa5f22904dc64576106a2641d666f9bcbfe3a6424d5571",
          "transactionIndex": "0xa5",
          "logIndex": "0x15d",
          "removed": false
        }
      ],
      "logsBloom": "0x00000000000000400000000000000000000000000000000000000000000000000000000000000000000000000000000000000000000000000004000000000000000000000000000000000000000000000000000000000000000000000000000000000000000000040000000000000000000000000040000000000000000000000000000000000000000000000000000000000000000000000000000000000000000000000000001000000000000000000000000000000000000000000000000000000000000000000000000000000000000000000000000000000000000000000000000000000000000000000000000000000000000000000100000000000000",
      "type": "0x2",
      "transactionHash": "0x79624405f2bc983ddbaa5f22904dc64576106a2641d666f9bcbfe3a6424d5571",
      "transactionIndex": "0xa5",
      "blockHash": "0x828661ad75e18a03d960da0a78d55677a3e3a146a905f446e74d64c7d3f7096f",
      "blockNumber": "0x818f9f",
      "gasUsed": "0x3ba1c",
      "effectiveGasPrice": "0xf42cd",
      "from": "0x61408ec3bc83622af4e14c07a42af1ac553a8dac",
      "to": "0x2405966c723213e94bcedfaa1c9877ad1d515b5d",
      "contractAddress": null
    }
  ],
  "libraries": [],
  "pending": [],
  "returns": {},
  "timestamp": 1749230521,
  "chain": 11155111,
  "commit": "bbb6947"
}