{
  "transactions": [
    {
      "hash": "0xc41307f65a07e5ab1a6bc140e9b5415fbf2f7109fd2cf9575abe5962c117afed",
      "transactionType": "CALL",
      "contractName": null,
      "contractAddress": "0x5892c9e1db2e355527584333da90813d6f33f547",
      "function": "applyChainUpdates((uint64,bool,bytes,bytes,(bool,uint128,uint128),(bool,uint128,uint128))[])",
      "arguments": [
        "[(6898391096552792247, true, 0x00000000000000000000000063c1d5de16ebed44b02e2392ffb224261a47b097, 0x0000000000000000000000009986bc9748a73f275866c6603546c286dd7125b2, (false, 0, 0), (false, 0, 0))]"
      ],
      "transaction": {
        "from": "0x61408ec3bc83622af4e14c07a42af1ac553a8dac",
        "to": "0x5892c9e1db2e355527584333da90813d6f33f547",
        "gas": "0x525dc",
        "value": "0x0",
        "input": "0xdb6327dc0000000000000000000000000000000000000000000000000000000000000020000000000000000000000000000000000000000000000000000000000000000100000000000000000000000000000000000000000000000000000000000000200000000000000000000000000000000000000000000000005fbc02272fbf20b7000000000000000000000000000000000000000000000000000000000000000100000000000000000000000000000000000000000000000000000000000001400000000000000000000000000000000000000000000000000000000000000180000000000000000000000000000000000000000000000000000000000000000000000000000000000000000000000000000000000000000000000000000000000000000000000000000000000000000000000000000000000000000000000000000000000000000000000000000000000000000000000000000000000000000000000000000000000000000000000000000000000000000000000000000000000000000000000000000000000000000000000000000000000000000000000000000000000000000000000000000000000000000000000000000000000000002000000000000000000000000063c1d5de16ebed44b02e2392ffb224261a47b09700000000000000000000000000000000000000000000000000000000000000200000000000000000000000009986bc9748a73f275866c6603546c286dd7125b2",
        "nonce": "0x32",
        "chainId": "0xaa36a7"
      },
      "additionalContracts": [],
      "isFixedGasLimit": false
    }
  ],
  "receipts": [
    {
      "status": "0x1",
      "cumulativeGasUsed": "0x1dc8d98",
      "logs": [
        {
          "address": "0x5892c9e1db2e355527584333da90813d6f33f547",
          "topics": [
            "0x8d340f17e19058004c20453540862a9c62778504476f6756755cb33bcd6c38c2"
          ],
          "data": "0x0000000000000000000000000000000000000000000000005fbc02272fbf20b7000000000000000000000000000000000000000000000000000000000000010000000000000000000000000000000000000000000000000000000000000000000000000000000000000000000000000000000000000000000000000000000000000000000000000000000000000000000000000000000000000000000000000000000000000000000000000000000000000000000000000000000000000000000000000000000000000000000000000000000000000000000000000000000000000000000000000000000000000000000000000000000000000000000000000000000000000000000000000000000000000000000000000000000000000000200000000000000000000000009986bc9748a73f275866c6603546c286dd7125b2",
          "blockHash": "0x52b27bc869d17382349b6f49ba1ad487f7d7fbd25b1b1b0837df1a98090eb142",
          "blockNumber": "0x818e9c",
          "blockTimestamp": "0x68431794",
          "transactionHash": "0xc41307f65a07e5ab1a6bc140e9b5415fbf2f7109fd2cf9575abe5962c117afed",
          "transactionIndex": "0xd0",
          "logIndex": "0x21d",
          "removed": false
        }
      ],
      "logsBloom": "0x00000000000000400000000000000000000000000000000000000000000000000000000000000000000000000000000000000000000000000004000000000000000000000000000002000000000000000000000000000000000000000000000000000000000000000000000000000000000000000000000000000000000000000000000000000000000000000000000000000000000000000000000000000000000000000000000000000000000000000000000000000000000000000000000000000000000000000000000000000000000000000000800000004000000000000000000000000000000000000000000000000000000000000100000000000000",
      "type": "0x2",
      "transactionHash": "0xc41307f65a07e5ab1a6bc140e9b5415fbf2f7109fd2cf9575abe5962c117afed",
      "transactionIndex": "0xd0",
      "blockHash": "0x52b27bc869d17382349b6f49ba1ad487f7d7fbd25b1b1b0837df1a98090eb142",
      "blockNumber": "0x818e9c",
      "gasUsed": "0x3ba1c",
      "effectiveGasPrice": "0xf443d",
      "from": "0x61408ec3bc83622af4e14c07a42af1ac553a8dac",
      "to": "0x5892c9e1db2e355527584333da90813d6f33f547",
      "contractAddress": null
    }
  ],
  "libraries": [],
  "pending": [],
  "returns": {},
  "timestamp": 1749227414,
  "chain": 11155111,
  "commit": "bbb6947"
}