{
  "transactions": [
    {
      "hash": "0x8387700a82b759c2d0fb198db5e9c64d70de5313cd2f07f380e556d614f3a175",
      "transactionType": "CALL",
      "contractName": null,
      "contractAddress": "0x5dfec92b71d8f2006061cfecdbddbbfb1a6e2583",
      "function": "applyChainUpdates((uint64,bool,bytes,bytes,(bool,uint128,uint128),(bool,uint128,uint128))[])",
      "arguments": [
        "[(6898391096552792247, true, 0x0000000000000000000000006b79692a7d39cf387691e2183bded1eca078581f, 0x000000000000000000000000e56c7e0ff467c5a41d3f1d1883cb27517a6f3b93, (false, 0, 0), (false, 0, 0))]"
      ],
      "transaction": {
        "from": "0x61408ec3bc83622af4e14c07a42af1ac553a8dac",
        "to": "0x5dfec92b71d8f2006061cfecdbddbbfb1a6e2583",
        "gas": "0x525dc",
        "value": "0x0",
        "input": "0xdb6327dc0000000000000000000000000000000000000000000000000000000000000020000000000000000000000000000000000000000000000000000000000000000100000000000000000000000000000000000000000000000000000000000000200000000000000000000000000000000000000000000000005fbc02272fbf20b700000000000000000000000000000000000000000000000000000000000000010000000000000000000000000000000000000000000000000000000000000140000000000000000000000000000000000000000000000000000000000000018000000000000000000000000000000000000000000000000000000000000000000000000000000000000000000000000000000000000000000000000000000000000000000000000000000000000000000000000000000000000000000000000000000000000000000000000000000000000000000000000000000000000000000000000000000000000000000000000000000000000000000000000000000000000000000000000000000000000000000000000000000000000000000000000000000000000000000000000000000000000000000000000000000000000000200000000000000000000000006b79692a7d39cf387691e2183bded1eca078581f0000000000000000000000000000000000000000000000000000000000000020000000000000000000000000e56c7e0ff467c5a41d3f1d1883cb27517a6f3b93",
        "nonce": "0x44",
        "chainId": "0xaa36a7"
      },
      "additionalContracts": [],
      "isFixedGasLimit": false
    }
  ],
  "receipts": [
    {
      "status": "0x1",
      "cumulativeGasUsed": "0x1197794",
      "logs": [
        {
          "address": "0x5dfec92b71d8f2006061cfecdbddbbfb1a6e2583",
          "topics": [
            "0x8d340f17e19058004c20453540862a9c62778504476f6756755cb33bcd6c38c2"
          ],
          "data": "0x0000000000000000000000000000000000000000000000005fbc02272fbf20b700000000000000000000000000000000000000000000000000000000000001000000000000000000000000000000000000000000000000000000000000000000000000000000000000000000000000000000000000000000000000000000000000000000000000000000000000000000000000000000000000000000000000000000000000000000000000000000000000000000000000000000000000000000000000000000000000000000000000000000000000000000000000000000000000000000000000000000000000000000000000000000000000000000000000000000000000000000000000000000000000000000000000000000000000000020000000000000000000000000e56c7e0ff467c5a41d3f1d1883cb27517a6f3b93",
          "blockHash": "0x11019e17972e6dd313a65bdf06dcbfd6257308f045af72335d4beda59fea4597",
          "blockNumber": "0x818f71",
          "blockTimestamp": "0x68432190",
          "transactionHash": "0x8387700a82b759c2d0fb198db5e9c64d70de5313cd2f07f380e556d614f3a175",
          "transactionIndex": "0x91",
          "logIndex": "0x129",
          "removed": false
        }
      ],
      "logsBloom": "0x00000000000000400000000000000000000000000000000000000000000000000000000000000000000000000000000000000000000000000004000000002000000000000000000000000000000000000000000000800000000000000000000000000000000000000000000000000000000000000000000000000000000000000000000000000000000000000000000000000000000000000000000000000000000000000000000000000000000000000000000000000000000000000000000000000000000000000000000400000000000000000000000000000000000000000000000000000000000000000000000000000000000000000100000000000000",
      "type": "0x2",
      "transactionHash": "0x8387700a82b759c2d0fb198db5e9c64d70de5313cd2f07f380e556d614f3a175",
      "transactionIndex": "0x91",
      "blockHash": "0x11019e17972e6dd313a65bdf06dcbfd6257308f045af72335d4beda59fea4597",
      "blockNumber": "0x818f71",
      "gasUsed": "0x3ba1c",
      "effectiveGasPrice": "0x10c9ef",
      "from": "0x61408ec3bc83622af4e14c07a42af1ac553a8dac",
      "to": "0x5dfec92b71d8f2006061cfecdbddbbfb1a6e2583",
      "contractAddress": null
    }
  ],
  "libraries": [],
  "pending": [],
  "returns": {},
  "timestamp": 1749229969,
  "chain": 11155111,
  "commit": "bbb6947"
}