{
  "transactions": [
    {
      "hash": "0x3b3122b2399ed1a506a0c610a492e4bb15a98a037870ccb5453a91ab0b3925ac",
      "transactionType": "CALL",
      "contractName": null,
      "contractAddress": "0x779877a7b0d9e8603169ddbd7836e478b4624789",
      "function": "approve(address,uint256)",
      "arguments": [
        "0x0BF3dE8c5D3e8A2B34D2BEeB17ABfCeBaf363A59",
        "19558841745184225"
      ],
      "transaction": {
        "from": "0x61408ec3bc83622af4e14c07a42af1ac553a8dac",
        "to": "0x779877a7b0d9e8603169ddbd7836e478b4624789",
        "gas": "0x1081f",
        "value": "0x0",
        "input": "0x095ea7b30000000000000000000000000bf3de8c5d3e8a2b34d2beeb17abfcebaf363a5900000000000000000000000000000000000000000000000000457ca9b67095e1",
        "nonce": "0x51",
        "chainId": "0xaa36a7"
      },
      "additionalContracts": [],
      "isFixedGasLimit": false
    },
    {
      "hash": "0x2e5b51cb5e8233f0393d6092745c6701c5e787011bdf215c20a3fd01e17788cf",
      "transactionType": "CALL",
      "contractName": null,
      "contractAddress": "0x344478eaaf80d131177779e46b2245ef651076a7",
      "function": "approve(address,uint256)",
      "arguments": [
        "0x0BF3dE8c5D3e8A2B34D2BEeB17ABfCeBaf363A59",
        "100000"
      ],
      "transaction": {
        "from": "0x61408ec3bc83622af4e14c07a42af1ac553a8dac",
        "to": "0x344478eaaf80d131177779e46b2245ef651076a7",
        "gas": "0x10c27",
        "value": "0x0",
        "input": "0x095ea7b30000000000000000000000000bf3de8c5d3e8a2b34d2beeb17abfcebaf363a5900000000000000000000000000000000000000000000000000000000000186a0",
        "nonce": "0x52",
        "chainId": "0xaa36a7"
      },
      "additionalContracts": [],
      "isFixedGasLimit": false
    },
    {
      "hash": "0xb74fbcdcd742434d82c4fc84312726cc3bfee4d64a7ff45588e82fb37654dd6f",
      "transactionType": "CALL",
      "contractName": null,
      "contractAddress": "0x0bf3de8c5d3e8a2b34d2beeb17abfcebaf363a59",
      "function": "ccipSend(uint64,(bytes,bytes,(address,uint256)[],address,bytes))",
      "arguments": [
        "6898391096552792247",
        "(0x00000000000000000000000061408ec3bc83622af4e14c07a42af1ac553a8dac, 0x, [(0x344478EaAf80D131177779e46B2245EF651076a7, 100000)], 0x779877A7B0D9E8603169DdbD7836e478b4624789, 0x97a657c90000000000000000000000000000000000000000000000000000000000000000)"
      ],
      "transaction": {
        "from": "0x61408ec3bc83622af4e14c07a42af1ac553a8dac",
        "to": "0x0bf3de8c5d3e8a2b34d2beeb17abfcebaf363a59",
        "gas": "0x61326",
        "value": "0x0",
        "input": "0x96f4e9f90000000000000000000000000000000000000000000000005fbc02272fbf20b7000000000000000000000000000000000000000000000000000000000000004000000000000000000000000000000000000000000000000000000000000000a000000000000000000000000000000000000000000000000000000000000000e00000000000000000000000000000000000000000000000000000000000000100000000000000000000000000779877a7b0d9e8603169ddbd7836e478b46247890000000000000000000000000000000000000000000000000000000000000160000000000000000000000000000000000000000000000000000000000000002000000000000000000000000061408ec3bc83622af4e14c07a42af1ac553a8dac00000000000000000000000000000000000000000000000000000000000000000000000000000000000000000000000000000000000000000000000000000001000000000000000000000000344478eaaf80d131177779e46b2245ef651076a700000000000000000000000000000000000000000000000000000000000186a0000000000000000000000000000000000000000000000000000000000000002497a657c9000000000000000000000000000000000000000000000000000000000000000000000000000000000000000000000000000000000000000000000000",
        "nonce": "0x53",
        "chainId": "0xaa36a7"
      },
      "additionalContracts": [],
      "isFixedGasLimit": false
    }
  ],
  "receipts": [
    {
      "status": "0x1",
      "cumulativeGasUsed": "0x1dbaf97",
      "logs": [
        {
          "address": "0x779877a7b0d9e8603169ddbd7836e478b4624789",
          "topics": [
            "0x8c5be1e5ebec7d5bd14f71427d1e84f3dd0314c0f7b2291e5b200ac8c7c3b925",
            "0x00000000000000000000000061408ec3bc83622af4e14c07a42af1ac553a8dac",
            "0x0000000000000000000000000bf3de8c5d3e8a2b34d2beeb17abfcebaf363a59"
          ],
          "data": "0x00000000000000000000000000000000000000000000000000457ca9b67095e1",
          "blockHash": "0x083a4d46e79040795da2ce789690fb8c484522ed46aa47aa9e3fd81b746c9f21",
          "blockNumber": "0x818fa5",
          "transactionHash": "0x3b3122b2399ed1a506a0c610a492e4bb15a98a037870ccb5453a91ab0b3925ac",
          "transactionIndex": "0xbe",
          "logIndex": "0x162",
          "removed": false
        }
      ],
      "logsBloom": "0x00000004000040000000000000000000000004000000000000000000000000000000000000000000000000000000000000000000000000000000000000200000000000000000000000000000000000000000000000000000000000000000000000000000000100000000000000000000000000000000000000000000000000000000000000000000000000000000800000000000000000000000000000000000020000000000080000000000000000000000000000000000000000000000000000000000000000000000000000000000000080000000000100000000000000000010000000000000000000000000000000000000000000200000000000000000",
      "type": "0x2",
      "transactionHash": "0x3b3122b2399ed1a506a0c610a492e4bb15a98a037870ccb5453a91ab0b3925ac",
      "transactionIndex": "0xbe",
      "blockHash": "0x083a4d46e79040795da2ce789690fb8c484522ed46aa47aa9e3fd81b746c9f21",
      "blockNumber": "0x818fa5",
      "gasUsed": "0xb499",
      "effectiveGasPrice": "0xf42be",
      "from": "0x61408ec3bc83622af4e14c07a42af1ac553a8dac",
      "to": "0x779877a7b0d9e8603169ddbd7836e478b4624789",
      "contractAddress": null
    },
    {
      "status": "0x1",
      "cumulativeGasUsed": "0x1ec5da6",
      "logs": [
        {
          "address": "0x344478eaaf80d131177779e46b2245ef651076a7",
          "topics": [
            "0x8c5be1e5ebec7d5bd14f71427d1e84f3dd0314c0f7b2291e5b200ac8c7c3b925",
            "0x00000000000000000000000061408ec3bc83622af4e14c07a42af1ac553a8dac",
            "0x0000000000000000000000000bf3de8c5d3e8a2b34d2beeb17abfcebaf363a59"
          ],
          "data": "0x00000000000000000000000000000000000000000000000000000000000186a0",
          "blockHash": "0x083a4d46e79040795da2ce789690fb8c484522ed46aa47aa9e3fd81b746c9f21",
          "blockNumber": "0x818fa5",
          "transactionHash": "0x2e5b51cb5e8233f0393d6092745c6701c5e787011bdf215c20a3fd01e17788cf",
          "transactionIndex": "0xc2",
          "logIndex": "0x191",
          "removed": false
        }
      ],
      "logsBloom": "0x00000000000040000000000000000000000004004000000000000000000000000000000400000000000000000000000000000000000000000000000000200000000000000000000000000000000000000000000000000000000000000000000000000000000100000000000000000000000000000000000000000000000000000000000000000000000000000000000000000000000000000000000000000000020000000000080000000000000000000000000000000000000000000000000000000000000000000000000000000000000080000000000000000000000000000010000000000000000000000000000002000000000000200000000000000000",
      "type": "0x2",
      "transactionHash": "0x2e5b51cb5e8233f0393d6092745c6701c5e787011bdf215c20a3fd01e17788cf",
      "transactionIndex": "0xc2",
      "blockHash": "0x083a4d46e79040795da2ce789690fb8c484522ed46aa47aa9e3fd81b746c9f21",
      "blockNumber": "0x818fa5",
      "gasUsed": "0xb75b",
      "effectiveGasPrice": "0xf42be",
      "from": "0x61408ec3bc83622af4e14c07a42af1ac553a8dac",
      "to": "0x344478eaaf80d131177779e46b2245ef651076a7",
      "contractAddress": null
    },
    {
      "status": "0x1",
      "cumulativeGasUsed": "0x1f08500",
      "logs": [
        {
          "address": "0x779877a7b0d9e8603169ddbd7836e478b4624789",
          "topics": [
            "0xddf252ad1be2c89b69c2b068fc378daa952ba7f163c4a11628f55a4df523b3ef",
            "0x00000000000000000000000061408ec3bc83622af4e14c07a42af1ac553a8dac",
            "0x000000000000000000000000a2865e4f36760f5fa5c8f958336120f2df0d974b"
          ],
          "data": "0x00000000000000000000000000000000000000000000000000457ca9b67095e1",
          "blockHash": "0x083a4d46e79040795da2ce789690fb8c484522ed46aa47aa9e3fd81b746c9f21",
          "blockNumber": "0x818fa5",
          "transactionHash": "0xb74fbcdcd742434d82c4fc84312726cc3bfee4d64a7ff45588e82fb37654dd6f",
          "transactionIndex": "0xc3",
          "logIndex": "0x192",
          "removed": false
        },
        {
          "address": "0x779877a7b0d9e8603169ddbd7836e478b4624789",
          "topics": [
            "0x8c5be1e5ebec7d5bd14f71427d1e84f3dd0314c0f7b2291e5b200ac8c7c3b925",
            "0x00000000000000000000000061408ec3bc83622af4e14c07a42af1ac553a8dac",
            "0x0000000000000000000000000bf3de8c5d3e8a2b34d2beeb17abfcebaf363a59"
          ],
          "data": "0x0000000000000000000000000000000000000000000000000000000000000000",
          "blockHash": "0x083a4d46e79040795da2ce789690fb8c484522ed46aa47aa9e3fd81b746c9f21",
          "blockNumber": "0x818fa5",
          "transactionHash": "0xb74fbcdcd742434d82c4fc84312726cc3bfee4d64a7ff45588e82fb37654dd6f",
          "transactionIndex": "0xc3",
          "logIndex": "0x193",
          "removed": false
        },
        {
          "address": "0x344478eaaf80d131177779e46b2245ef651076a7",
          "topics": [
            "0xddf252ad1be2c89b69c2b068fc378daa952ba7f163c4a11628f55a4df523b3ef",
            "0x0000000000000000000000000000000000000000000000000000000000000000",
            "0x00000000000000000000000061408ec3bc83622af4e14c07a42af1ac553a8dac"
          ],
          "data": "0x0000000000000000000000000000000000000000000000000000000000000000",
          "blockHash": "0x083a4d46e79040795da2ce789690fb8c484522ed46aa47aa9e3fd81b746c9f21",
          "blockNumber": "0x818fa5",
          "transactionHash": "0xb74fbcdcd742434d82c4fc84312726cc3bfee4d64a7ff45588e82fb37654dd6f",
          "transactionIndex": "0xc3",
          "logIndex": "0x194",
          "removed": false
        },
        {
          "address": "0x344478eaaf80d131177779e46b2245ef651076a7",
          "topics": [
            "0xddf252ad1be2c89b69c2b068fc378daa952ba7f163c4a11628f55a4df523b3ef",
            "0x0000000000000000000000000000000000000000000000000000000000000000",
            "0x0000000000000000000000002405966c723213e94bcedfaa1c9877ad1d515b5d"
          ],
          "data": "0x0000000000000000000000000000000000000000000000000000000000000000",
          "blockHash": "0x083a4d46e79040795da2ce789690fb8c484522ed46aa47aa9e3fd81b746c9f21",
          "blockNumber": "0x818fa5",
          "transactionHash": "0xb74fbcdcd742434d82c4fc84312726cc3bfee4d64a7ff45588e82fb37654dd6f",
          "transactionIndex": "0xc3",
          "logIndex": "0x195",
          "removed": false
        },
        {
          "address": "0x344478eaaf80d131177779e46b2245ef651076a7",
          "topics": [
            "0xddf252ad1be2c89b69c2b068fc378daa952ba7f163c4a11628f55a4df523b3ef",
            "0x00000000000000000000000061408ec3bc83622af4e14c07a42af1ac553a8dac",
            "0x0000000000000000000000002405966c723213e94bcedfaa1c9877ad1d515b5d"
          ],
          "data": "0x00000000000000000000000000000000000000000000000000000000000186a0",
          "blockHash": "0x083a4d46e79040795da2ce789690fb8c484522ed46aa47aa9e3fd81b746c9f21",
          "blockNumber": "0x818fa5",
          "transactionHash": "0xb74fbcdcd742434d82c4fc84312726cc3bfee4d64a7ff45588e82fb37654dd6f",
          "transactionIndex": "0xc3",
          "logIndex": "0x196",
          "removed": false
        },
        {
          "address": "0x344478eaaf80d131177779e46b2245ef651076a7",
          "topics": [
            "0xddf252ad1be2c89b69c2b068fc378daa952ba7f163c4a11628f55a4df523b3ef",
            "0x0000000000000000000000000000000000000000000000000000000000000000",
            "0x0000000000000000000000002405966c723213e94bcedfaa1c9877ad1d515b5d"
          ],
          "data": "0x0000000000000000000000000000000000000000000000000000000000000000",
          "blockHash": "0x083a4d46e79040795da2ce789690fb8c484522ed46aa47aa9e3fd81b746c9f21",
          "blockNumber": "0x818fa5",
          "transactionHash": "0xb74fbcdcd742434d82c4fc84312726cc3bfee4d64a7ff45588e82fb37654dd6f",
          "transactionIndex": "0xc3",
          "logIndex": "0x197",
          "removed": false
        },
        {
          "address": "0x344478eaaf80d131177779e46b2245ef651076a7",
          "topics": [
            "0xddf252ad1be2c89b69c2b068fc378daa952ba7f163c4a11628f55a4df523b3ef",
            "0x0000000000000000000000002405966c723213e94bcedfaa1c9877ad1d515b5d",
            "0x0000000000000000000000000000000000000000000000000000000000000000"
          ],
          "data": "0x00000000000000000000000000000000000000000000000000000000000186a0",
          "blockHash": "0x083a4d46e79040795da2ce789690fb8c484522ed46aa47aa9e3fd81b746c9f21",
          "blockNumber": "0x818fa5",
          "transactionHash": "0xb74fbcdcd742434d82c4fc84312726cc3bfee4d64a7ff45588e82fb37654dd6f",
          "transactionIndex": "0xc3",
          "logIndex": "0x198",
          "removed": false
        },
        {
          "address": "0xa2865e4f36760f5fa5c8f958336120f2df0d974b",
          "topics": [
            "0xd0c3c799bf9e2639de44391e7f524d229b2b55f5b1ea94b2bf7da42f7243dddd"
          ],
          "data": "0x0000000000000000000000000000000000000000000000000000000000000020000000000000000000000000000000000000000000000000de41ba4fc9d91ad900000000000000000000000061408ec3bc83622af4e14c07a42af1ac553a8dac00000000000000000000000061408ec3bc83622af4e14c07a42af1ac553a8dac000000000000000000000000000000000000000000000000000000000000029f000000000000000000000000000000000000000000000000000000000000000000000000000000000000000000000000000000000000000000000000000000000000000000000000000000000000000000000000000000000000000000000001000000000000000000000000779877a7b0d9e8603169ddbd7836e478b462478900000000000000000000000000000000000000000000000000457ca9b67095e100000000000000000000000000000000000000000000000000000000000001a000000000000000000000000000000000000000000000000000000000000001c00000000000000000000000000000000000000000000000000000000000000220507bbd0e7acc248a94a3044833e7fc40f7a1671147578f38b4b3079154c1f33100000000000000000000000000000000000000000000000000000000000000000000000000000000000000000000000000000000000000000000000000000001000000000000000000000000344478eaaf80d131177779e46b2245ef651076a700000000000000000000000000000000000000000000000000000000000186a00000000000000000000000000000000000000000000000000000000000000001000000000000000000000000000000000000000000000000000000000000002000000000000000000000000000000000000000000000000000000000000001600000000000000000000000000000000000000000000000000000000000000020000000000000000000000000000000000000000000000000000000000000008000000000000000000000000000000000000000000000000000000000000000c000000000000000000000000000000000000000000000000000000000000001000000000000000000000000000000000000000000000000000000000000015f9000000000000000000000000000000000000000000000000000000000000000200000000000000000000000002405966c723213e94bcedfaa1c9877ad1d515b5d0000000000000000000000000000000000000000000000000000000000000020000000000000000000000000adde6642e7da5d43892783d8b36c6deefeca7a8900000000000000000000000000000000000000000000000000000000000000200000000000000000000000000000000000000000000000000000000ba43b7400",
          "blockHash": "0x083a4d46e79040795da2ce789690fb8c484522ed46aa47aa9e3fd81b746c9f21",
          "blockNumber": "0x818fa5",
          "transactionHash": "0xb74fbcdcd742434d82c4fc84312726cc3bfee4d64a7ff45588e82fb37654dd6f",
          "transactionIndex": "0xc3",
          "logIndex": "0x199",
          "removed": false
        }
      ],
      "logsBloom": "0x00000004000040000000000000000000000004004000000000000000000000000000000400000000000000000000000000000000000000000000000000200000000000000000000000000008000000000000000000000000000000000000000010000000020100000000000000000800000000000000100000000010000000000000000000000000000000000000800000000000000000000000000000000000020000001000080400000000000000000000000000000000000100010000000000000002000000000000000000000000000080000100000100000000004020000010800000000000000000000200000006000800000000200000000000000000",
      "type": "0x2",
      "transactionHash": "0xb74fbcdcd742434d82c4fc84312726cc3bfee4d64a7ff45588e82fb37654dd6f",
      "transactionIndex": "0xc3",
      "blockHash": "0x083a4d46e79040795da2ce789690fb8c484522ed46aa47aa9e3fd81b746c9f21",
      "blockNumber": "0x818fa5",
      "gasUsed": "0x4275a",
      "effectiveGasPrice": "0xf42be",
      "from": "0x61408ec3bc83622af4e14c07a42af1ac553a8dac",
      "to": "0x0bf3de8c5d3e8a2b34d2beeb17abfcebaf363a59",
      "contractAddress": null
    }
  ],
  "libraries": [],
  "pending": [],
  "returns": {},
  "timestamp": 1749230594,
  "chain": 11155111,
  "commit": "bbb6947"
}